:020000040800F2
:1000000070070020090300081D280008C526000805
:10001000192800080D180008D92900080000000060
:10002000000000000000000000000000252800087B
:1000300011180008000000002128000829280008E5
:1000400023030008230300082303000823030008F8
:1000500023030008230300082303000823030008E8
:1000600023030008230300082303000823030008D8
:1000700023030008230300082303000823030008C8
:1000800023030008230300082303000823030008B8
:1000900023030008230300082303000823030008A8
:1000A0002303000823030008230300082303000898
:1000B0002303000823030008230300082303000888
:1000C0002303000823030008230300082303000878
:1000D0002303000823030008230300082303000868
:1000E0002303000823030008230300082303000858
:1000F0002303000823030008230300082303000848
:100100002303000823030008230300082303000837
:100110002303000823030008230300082303000827
:100120002303000823030008230300082303000817
:100130002303000823030008230300082303000807
:1001400023030008230300082303000823030008F7
:1001500023030008230300082303000823030008E7
:1001600023030008230300082303000823030008D7
:1001700023030008230300082303000800000000F5
:10018000230300082303000800F002F800F0ACF895
:1001900014A696E8000CB244B344DA4501D100F04D
:1001A000A3F8BAE80F000FA696E83000A5EB040507
:1001B00004EB0607AAEB0704A7F101074FEA1515A0
:1001C0004FEA3414A4F10104AC4201D300F08CF8DE
:1001D00013F0010F18BFFB1A43F0010300F001F800
:1001E000DBE718478C330000AC330000103A24BF23
:1001F00078C878C1FAD8520724BF30C830C144BF8C
:1002000004680C6070470000704700000023002461
:1002100000250026103A28BF78C1FBD8520728BF16
:1002200030C148BF0B6070476E2900F0958270297D
:1002300000F0D783662903F00C81652903F009815A
:10024000672903F00681612903F0058103681B0A11
:1002500028BF41F08001692900F04282642900F042
:100260003F82752900F03C826F2900F06583782970
:1002700000F0A383E92900F0FF82E42900F0FC826A
:10028000F52900F0F982EF2900F06283F82900F0E7
:10029000A2830368DB0928BF41F08001632901F0D4
:1002A000E980732901F0EE80E32901F0F980F32958
:1002B00001F0FE80002070471FB503F0BDF89DE8F7
:1002C000030000F04DF901F04FF904000020002177
:1002D00003F09CF8401C60600020002103F080F8CF
:1002E000E0601FBD10B510BD01F011F91146FFF718
:1002F000E3FF02F059FC01F0EDF903B4FFF7F2FF60
:1003000003BC01F01DFA0000094880470948004776
:10031000FEE7FEE7FEE7FEE7FEE7FEE7FEE7FEE7B5
:10032000FEE7FEE704480549054A064B7047000012
:10033000D5280008890100087001002070070020FE
:10034000700300207003002070B5A0FB0140B4F1E1
:10035000805170F1000024BF002070BD204600F0E5
:100360002EF905001CBF214600F00AFC284670BD8E
:1003700070B50446051F00F0D7F80068002C14BFC4
:10038000446870BD002C18BFAC423CBF2046646876
:10039000F8D301680A18AA4218BF456003D12A6839
:1003A00005461144016028684119A1421CBF6C60D8
:1003B00070BD6168696021680844286070BD53EAB7
:1003C000020C00F069802DE9F04B4FF00006002B85
:1003D0001FBFB3FA83F503FA05F424FA05F65E406D
:1003E00012BF1643B2FA82F502FA05F4C5F12005F0
:1003F0001EBF22FA05FC44EA0C04203556EA044CE0
:100400004FEA144418BF641C4FF000084FF0000975
:10041000904271EB030C39D3002919BFB1FA81F76F
:1004200001FA07F6B0FA80F700FA07F6C7F12007DD
:100430001EBF20FA07FC46EA0C062037B6FBF4FC88
:10044000A7EB0507103F07F01F0BCBF120062CFA96
:1004500006F60CFA0BFB44BFB3460026202FA4BFC0
:100460005E464FF0000B5BEA060C08BF4FF0010B35
:1004700019EB0B0948EB0608ABFB027C06FB02CC30
:100480000BFB03CCC01B71EB0C01C1E70B46024612
:1004900041464846BDE8F08B13B5084318BF4FF0FE
:1004A000FF300146AFF30080BDE81C4070470000FC
:1004B0001CB50C46064B7B4469460090204600F074
:1004C00064F904460020694600F072F920461CBD1C
:1004D000F70200004FF0000200B51346944696461E
:1004E000203922BFA0E80C50A0E80C50B1F1200147
:1004F000BFF4F7AF090728BFA0E80C5048BF0CC0F5
:100500005DF804EB890028BF40F8042B08BF704752
:1005100048BF20F8022B11F0804F18BF00F8012BC4
:1005200070477047704770470048704718000020B8
:10053000704770477047704738B504460A46002038
:100540006946AFF30080002808BF38BD0246009915
:10055000204600F041FB012038BD012000F0D0BF53
:10056000F8B5AFF30080054600200C460C2000BF14
:100570000646A819A0420DD9324669460020AFF3BD
:100580000080070008BF00F0BBFF0098A04218BF22
:100590000546C419FFF7C8FF05600746F01D20F0A7
:1005A00007004619284600F011FBB44208BFF8BD09
:1005B000A21B31463868BDE8F84000F00DBB70B5AD
:1005C0000646FFF7B1FF056806F10B0020F00704AF
:1005D000B4429CBF002070BD2B466A68BAB1106857
:1005E000A04210D304F1080188423CBF5068586013
:1005F00007D35168101941601168091B01605860E8
:100600001460101D70BD13465268002AE7D12146C0
:100610002846FFF791FF0028DED170BD70B5044673
:1006200085690068C10601D5302600E02026C00794
:1006300007D070BDD4E9012130469047206A401CA4
:1006400020626D1EF6D570BD70B5044685690078D0
:10065000C00707D170BDD4E9012120209047206A4E
:10066000401C20626D1EF6D570BD09684A0501D593
:1006700040B27047C905FCD500B2704709684A0509
:1006800001D5C0B27047C905FCD580B2704770B5BE
:100690000C460546012A05D02878800600D5EA696F
:1006A000002302E0012305E05B1C934202D2E05CE0
:1006B0000028F9D1A869E618C01AA861286A184468
:1006C00028622846FFF7AAFF04E0D5E9012114F8C3
:1006D000010B9047B442F8D32846FFF7B5FF70BD31
:1006E0002DE9F0410646002410687529314616A50B
:1006F00010D0FFF7BAFF002802DA404213A507E046
:1007000031688A0701D512A502E0490704D511A571
:10071000012401E0FFF7B2FF00210A2206F12407BD
:1007200009E0B0FBF2FCB0FBF2F302FB1C0030303E
:1007300078541846491C0028F3D123462A463046EF
:10074000BDE8F04100F0A7BA000000002D00000055
:100750002B0000002000000011680268006A5305A9
:1007600001D508700AE0D30501D5088006E013061C
:1007700003D5C217C1E9000200E0086001207047FC
:1007800001694A1C02610878704700B58FB0CDE955
:1007900001310021059105497944CDE90310114645
:1007A000684600F029F90FB000BD0000E5FFFFFF2B
:1007B0000A6802F8010B0A60704700002DE9FF5F2C
:1007C00015468A460446DFF8AC80F8440027D8E98D
:1007D00000103E46CDE9001010E03AF816106A46C7
:1007E00002A800F069FE411C07D02178890603D5D4
:1007F000E269391891420DD80744761C20788006AA
:1008000002D5E069B84205DDAE42E6DB3AF81600F3
:100810000028E2D1A069C01BA0612046FFF7FEFEC0
:10082000D8E90010CDE90010002017E03AF81810C0
:100830006A4602A800F040FEB0F1FF3F81460BD0AF
:1008400000250DF1080B05E0D4E901211BF8050096
:1008500090476D1C4D45F7D308F10100B04280462A
:10086000E4DB206A384420622046FFF7EDFEBDE855
:10087000FF9F00008E2C00002DE9F0418046D21D24
:1008800022F007020025D2E90002F52915A614D0AE
:10089000011E72F1000106DA0023D0EB030063EBC6
:1008A000020211A608E0D8F800108B0701D50FA6A8
:1008B00002E0490701D50EA601251146002408F1E2
:1008C000240704E000F0A2F930323A55641C50EAE3
:1008D0000102F7D12B46324621464046BDE8F041A1
:1008E00000F0D9B9000000002D0000002B0000002E
:1008F0002000000030B4002100F1240408E002F0E0
:100900000705D208303542EA4372DB086554491CBA
:1009100052EA0305F3D10468002310A2250708D585
:1009200004F020040C4304D0C46901230CA2641E0B
:10093000C46130BC00F0AFB910B504462146106860
:10094000FFF79CFE02462046BDE810400023D1E799
:10095000D21D22F00701D1E90023CBE700000000FF
:1009600030000000F0B40D460188090502D5214C85
:100970007C4402E01F4C7C440E34002100F124062C
:1009800008E002F00F071209E75D42EA03721B0953
:100990007754491C52EA0307F3D102780023120767
:1009A00004D5702D06D009B1022311342246F0BCC3
:1009B00000F071B901231034F8E770B504460D4614
:1009C00021461068FFF75AFE024629462046BDE838
:1009D00070400023C6E7D21D22F00703D3E90023AD
:1009E000C0E70368126843F0200303600823C36173
:1009F0000023B7E7F02A00002DE9F05F894604469E
:100A00004FF0000ADFF874B1FB44C0F820A0204684
:100A1000E1688847002874D0252806D0D4E9012150
:100A20009047206A401C2062F1E700265F4620467E
:100A3000E16888472028054607DB312D05D2781963
:100A400010F8200C08B10643F1E7B00701D526F0F5
:100A50000406C4F81CA00027C4F818A02A2D09D049
:100A6000284602F0B5FC38B304EB8708303DC8F8DF
:100A7000185019E059F8041B204604EB87029161D5
:100A8000E1688847012F054618D1E069002820DA7F
:100A900026F020061DE0D8F8180000EB800005EBDA
:100AA00040003038C8F818002046E16888470546FD
:100AB00002F08EFC0028EED1012F0AD02E2D08D195
:100AC0002046E16888477F1C0546022F46F0200635
:100AD000C4DBA069002803DA404246F00106A061A9
:100AE000F00701D026F010066C2D0BD0682D09D030
:100AF0004C2D39D06A2D35D0742D35D07A2D33D088
:100B000016E038E0E1682F4620468847B84205469F
:100B100009D16C2F26D04FF48060E168064320464F
:100B20008847054604E06C2F1AD04FF480700643C6
:100B30000DB3A5F14100192802D8203546F400660E
:100B40004A462946204626604E46FFF76DFB80B197
:100B500001280BD0F61D26F0070000F1080956E722
:100B60004020E4E78020D8E70020D6E706F104091A
:100B70004DE7284652E7206ABDE8F09F802A000032
:100B80004FF000020429C0F0128010F0030C3FF473
:100B9000A3ACCCF1040CBCF1020F18BF00F8012B80
:100BA000A8BF20F8022BA1EB0C01FFF795BC5FEA70
:100BB000C17C24BF00F8012B00F8012B48BF00F8CE
:100BC000012B704700487047100000200021016091
:100BD000416070470C207047034640688C460028EF
:100BE00018BF88423CBF03464068F8D318681844D1
:100BF000884207D00CF1030020F00700001D411AC5
:100C0000521A0146081D0A60FFF7B2BB30B5B0F1B9
:100C10000A0271F100034FEA900E4EEA817EB0EBBA
:100C20000E0061EB91014FEA101E4EEA017E10EBBF
:100C30000E0041EB11114FEA102E4EEA016E10EB3F
:100C40000E0041EB11214FEA104E4EEA014E10EB1F
:100C50000E0041EB1141401841F100014FEAD00074
:100C600040EA41704FEAD1014FEA810444EA9074AE
:100C700010EB800544EB01046D1944EB0404521B96
:100C8000A3414FF0000348BF0A3200D530BD401CDD
:100C900041F1000130BD2DE9F0470D4699469246DD
:100CA000044600F124080168880604D5E06921F0B3
:100CB0001001216000E00120A84201DD471B00E097
:100CC0000027A1697A1902EB0900081AA0612078AF
:100CD000C00602D42046FFF7A1FC002608E0D4E9B4
:100CE00001211AF806009047206A401C761C2062F9
:100CF0004E45F4DB2078C0060AD52046FFF78EFC6F
:100D000006E0D4E9012130209047206A401C20628F
:100D1000381EA7F10107F4DC07E0D4E9012118F837
:100D200005009047206A401C2062281EA5F101059D
:100D3000F3DC2046FFF788FC2078000602D502206D
:100D4000BDE8F0870120FBE72DE9FF4F0C461E466A
:100D50004FF0FF378BB0D2E90001DDF860800A90D8
:100D60008A46C1F30A5505B93D46002108464FF0B1
:100D70000000BAF1000F00F4400005DA00EB80003B
:100D80004FF4400101EA50004FEA9059B9F1010FC8
:100D900000DDB9460A9850EA4A000ED044F61050D9
:100DA000A5F2FF3545432F14B8F1000F1ED0754250
:100DB000291E1EDDC9F100021CE0B8F1010F4FF041
:100DC000000001D0302103E0F24305E02154401C33
:100DD000B042FBDB30460022002121540B99C1F8C0
:100DE0000880C1E900200FB0BDE8F08FBD1B6D1C6D
:100DF000DEE74A4600DA694206A800F0F9FB06ABD6
:100E000093E8070003AB83E8070050460A9901F016
:100E1000FFFE8DE80700A0F500501F3800900398F2
:100E2000002D0ADD42F21F014A460844002303A9AF
:100E30000390684602F068F909E0A0F500504A46C0
:100E40001F38002303A90390684602F072F98DE869
:100E500007000004000C03D04FF0FF30410800E011
:100E60001046B8F1000F03D00022009215461EE094
:100E7000751E05D4FFF7CAFE303262556D1EF9D5D6
:100E8000B3460122084302D000227F1C04E02078F0
:100E9000302801D100227F1E002A099784D01DE04E
:100EA000112D07DAFFF7B2FE303262556D1C50EAA1
:100EB0000102F5D1084302D00098C8B10EE000212C
:100EC000681E05E0235C625C63542254401E491C8A
:100ED0008142F7DBAB46A81B401E0990002004F8B6
:100EE0000B000B98099AC0F80880C0E9002B7AE73C
:100EF00011264FF0000857E72DE9F04F88460446C9
:100F0000D21D22F0070191B0D1E90001CDE90A011B
:100F100002F046FA02460B98C00F01D02D2007E0E0
:100F20002068810701D52B2002E0202101EAC000C2
:100F3000032A099001D0072A05DB034641462046D3
:100F400000F016FB0BE12078800601D5E06900E097
:100F50000620B8F1650F814606D0B8F1660F18D0AB
:100F6000B8F1670F70D131E00020B9F1110F009096
:100F700001DB112301E009F101030AAA01A90CA870
:100F8000FFF7E2FEDDE90C70002609F1010583465A
:100F900047E001204B4600904FF000470AAA01A904
:100FA0000CA8FFF7D1FEDDE90DB00C995D460026D7
:100FB00010B909F101000D18B9EB050003D4C0F117
:100FC000FF3609F10105A5EB09002BE0B9F1010F8E
:100FD00001DA4FF001090020B9F1110F00904846E5
:100FE00001DD112300E003460AAA01A90CA8FFF7BE
:100FF000ABFEDDE90C704D460026834620780007E5
:101000000AD4AB4500DA5D4601A8012D04DD411983
:1010100011F8011C302907D04F4502DA17F1040FEF
:1010200004DA012082460FE06D1EEEE7002F02DC9D
:10103000ED1B3E4403E0781CA84200DD7D1CB81B7C
:1010400000F1010A4FF000472078000703D4AA45B9
:1010500001DB4FF0FF3A0021B7F1004F0DF14308DB
:101060008DF8431024D002202B23002F01DA7F4279
:101070002D230A21021EA0F1010000DC5FB197FBC5
:10108000F1FC97FBF1F201FB1C7C17460CF1300CD4
:1010900008F801CDEEE7A8F10100037021880905E9
:1010A00001D5452100E06521A0F1010800F8011CEF
:1010B00009980FA9A1EB0807FF1D00B101204119F4
:1010C00001EBEA70A1693844081A401EA06120783B
:1010D000C00602D42046FFF7A1FA099828B1D4E946
:1010E00001219047206A401C20622078C00622D54A
:1010F0002046FFF793FA1EE0002E04DBB34502DD25
:1011000001A8805D00E03020D4E901219047206AE9
:10111000401C2062761CAAF101005FEA000A0AD195
:1011200000F022FAC0680168405CD4E901219047D0
:10113000206A401C2062281EA5F10105DCDC07E0C6
:10114000D4E9012118F8010B9047206A401C206265
:10115000381EA7F10107F3DC2046FFF775FA0320DC
:1011600011B041E62DE9F04F04460D46D21D22F0A4
:10117000070089B0D0E900974846394602F010F9D7
:101180000246F80F01D02D2307E02068810701D522
:101190002B2302E0202101EAC0038DF820300BB19F
:1011A000012000E00020032A824601D0072A04DB48
:1011B0002946204600F0DCF93FE12078800601D482
:1011C0000D2500E0E569C7F30A560D2D49DA002127
:1011D0004FEA175B08464FF00000002F00F4400074
:1011E00007DA00EB80004FF4400100EBD07001EA19
:1011F00060008115012901DD4FF0FF3100224FEA27
:10120000850CBCF1180F06D31346ACF118004FF053
:101210008052C24003E04FF4801323FA0CF30CF128
:101220000C0CBCF1200F04D3ACF1200C09FA0CF02B
:1012300001E007FA0CF000294FF0004801DD18B971
:101240000FE00ED140450CD319EB02095F4121B9E3
:10125000404502D19F4329EA0209BBEB175F00D04A
:10126000761C2088000502D57B48784402E07A4845
:101270007844193808AA302302F80A30037C0AF1AE
:101280000101002E0AF1020A53546A4602DC4FF0B3
:10129000300101E04FF031014FF001088DF80010EE
:1012A00002D0A6F2FF3603E059EA470100D06B4EA8
:1012B000002D02DC2178090704D54FF002082E2109
:1012C0008DF80110C44600210BE0C7F303433F0132
:1012D000C35C491C6D1E02F80830052908F101089D
:1012E00001DA002DF1DC00210CE000EB1973491C40
:1012F0001B786D1E082902F808304FEA091908F119
:10130000010801DA002DF0DC21688B0602D516E019
:10131000A8F10108E04505DD02EB080313F8013CE4
:10132000302BF5D0B8F1000F09DD02EB080313F8FC
:10133000013C2E2B03D1090701D4A8F10108002D8F
:1013400005DD3E2102F808106D1E08F10108407C01
:10135000002E02F8080008F1010804DA2D20764278
:1013600002F8080002E02B2002F808000A214FF4DE
:101370007A70864208F101080BDB96FBF0F33033FC
:1013800002F8083096FBF0F308F1010800FB136641
:1013900001E0642E0CDB642096FBF0F3303302F89E
:1013A000083096FBF0F308F1010800FB136601E03A
:1013B0000A2E06DB96FBF1F0303002F8080008F147
:1013C000010896FBF1F001FB1060303002F80800D4
:1013D000A16908F1010808EB050202EB0A00081AEE
:1013E000A0612078C00602D42046FFF717F9216AD1
:1013F00008AE01EB0A00206204E0D4E9012116F8EE
:10140000010B9047BAF1010AF7D22078C00602D545
:101410002046FFF703F96E4609E016F8010B3E2857
:101420000FD0D4E901219047206A401C2062B8F116
:101430000108F2D22046FFF707F909B00320BDE802
:10144000F08F206A2844206203E0D4E90121302093
:1014500090476D1EEBD3F8E74222000002FCFFFF2D
:1014600010B5436913B1AFF3008001E0FFF70FF946
:10147000012010BD127800F124010A7000224A7088
:101480000122EDE711684FF0FF32E9E710B543693B
:1014900013B1AFF3008001E0FFF790F9012010BD18
:1014A000128800F1240182840022C2840122EDE727
:1014B00011684FF0FF32E9E72DE9F04116460C467E
:1014C000054600F049F8036893F80101012807D0A8
:1014D000FF2C12D8185D80B101202C70BDE8F0817E
:1014E000D3F807013246214603F20713C7182846EE
:1014F000BC46BDE8F041002360474FF0FF30EDE708
:1015000010B500F0F5F8BDE8104000F0ECB87546F5
:10151000FFF758FBAE4605006946534620F007002A
:10152000854618B020B5FEF7FDFEBDE820404FF01F
:1015300000064FF000074FF000084FF0000BAC46DC
:10154000ACE8C009ACE8C009ACE8C009ACE8C00927
:1015500021F007018D46704710B500F005F8001D19
:1015600010BD00BFA91E00000048704730000020D9
:101570002DE9F0411F46044603260168072A01F4BD
:10158000006004DB08B116A505E016A503E008B16C
:1015900015A500E015A521F010002060A069C01E6F
:1015A000A0610FB1401EA0612046FFF737F84FB190
:1015B000D4E9012138469047206A401C2062C01CB3
:1015C000206206E0206AFAE7D4E9012115F8010B50
:1015D0009047761EF8D22046FFF736F8BDE8F08136
:1015E0004E414E006E616E00494E4600696E6600C7
:1015F0002DE9F047814616468AB0354878440DC833
:101600008DE80D0032487844801C03AC0DC884E896
:101610000D0041F69B300844372190FBF1F290FB1E
:10162000F1F5A5F1800501FB12041B3C02D56442D3
:10163000012000E00020DFF898A080460027FA444F
:10164000AAF1BE0A0EE0E0070AD03246684607EB70
:10165000470101230AEB810101F06BFD8DE80700D2
:1016600064107F1C002CEED1194F7F44AE3F19E06F
:10167000E80715D007EB04100DF1180A90E80E00EA
:101680008AE80E00C068F04201D1981908903246ED
:10169000012306A903A801F04CFD03AB83E8070072
:1016A0006D10641C002DE3D14FF0010332466946F2
:1016B000B8F1000F03A802D001F026FD01E001F00F
:1016C00038FDC9E90001C9F808200AB0BDE8F08773
:1016D000401F000010B50446AFF300802046BDE86F
:1016E0001040FEF70ABE002801D000F029B870476C
:1016F00010B5012805D0002103A000F028F8012032
:1017000010BD09A1F8E7000053494752544D454D1B
:101710003A204F7574206F662068656170206D6592
:101720006D6F7279000000003A2048656170206D8D
:10173000656D6F727920636F727275707465640085
:1017400001491820ABBEFEE726000200704770B5C5
:1017500005460C460A2000E06D1C00F04FF835B13C
:1017600028780028F8D102E0641C00F047F814B192
:1017700020780028F8D1BDE870400A2000F03EB87B
:1017800030B44FF0013C50F8042B51F8043BCCFA34
:1017900052F4D51A20D1FCB950F8042B51F8043B6F
:1017A000CCFA52F4D51A17D1B4B950F8042B51F829
:1017B000043BCCFA52F4D51A0ED16CB950F8042B74
:1017C00051F8043BCCFA52F4D51A05D1002CDAD0EA
:1017D00030BC4FF00000704729BAB1FA81F111F026
:1017E0001801D1F120008440F2D1CA40CB4012F060
:1017F000FF0213F0FF0330BCD01A704708B56946EA
:101800008DF800000320ABBE08BD0000FEE700001D
:101810007047000072B600BFFEE70000B0B5864614
:1018200002208EF80500DEF8000042B302F0030C3F
:1018300094084FF0000210D0A1F11003A2EB840431
:1018400053F8105F043A05605D68944205609D6836
:101850000560DD680560F3D15242BCF1000F0ED087
:1018600051F82230BCF1010F036008D001EB820176
:101870004A68BCF1020F02601CBF89680160006801
:1018800001218EF80510B0BD002804BF012070476B
:1018900010B50446407918B101206071002010BDD8
:1018A00000202071204600F005F801206071002022
:1018B00010BD000043F63001C4F202010068A1F53A
:1018C0000362904218BF704781B000200090086802
:1018D00040F480500860086800F480500090009840
:1018E00001B07047B0B5044600F0E6F8054640F296
:1018F0000000C2F200000078611C18BF044400BF61
:1019000000F0DAF8401BA042FAD3B0BD2DE9F04F49
:1019100082B000F13E4707F1FF77860546EA972738
:1019200041F60046C4F20206082243F6004EB042D9
:1019300008BF0722C4F2010E072F38BF3A4600261F
:1019400000274FF00008009209E000BF08F10108ED
:101950000237B8F1100F06F1040600F0A3800D68FD
:10196000012202FA08F415EA0409EFD0D1F804B014
:1019700003220BF0030CACF10105BA40012D6FEA14
:10198000020A0FD88268CD6802EA0A02BD402A43E3
:1019900082604268A243CBF3001404FA08F42243A5
:1019A000426005E0BCF1030F02D14FF0030C1EE0D2
:1019B000C2688C6802EA0A02BC402243BCF1020FF2
:1019C000C26014D16FF0030202EA58020244D2F856
:1019D00020C006F01C040F230D69A3402CEA03036A
:1019E000A5402B431362D1F804B00BF0030C02683E
:1019F0000CFA07F302EA0A021A431BF4403F0260A2
:101A0000A4D0002243F644030192C4F202031A68F0
:101A10004FF6084C42F480421A601A68CFF6FF7CF9
:101A200002F480420192019A28F00302724452F8B3
:101A30000C3006F00C050F24AC40A343009C04FAC4
:101A400005F52B4342F80C30DEF808204B6842EADB
:101A5000090543F60C4CDC0258BF22EA0905CEF812
:101A60000850C4F2010CDCF800209C0242EA09058F
:101A700058BF22EA0905CCF80050DEF804209C0388
:101A800042EA090558BF22EA0905CEF80450DEF8FB
:101A90000020DB0342EA090558BF22EA0905CEF817
:101AA000005053E702B0BDE8F08F0000002A08BFE5
:101AB000090481617047000040F26C10C2F200001E
:101AC0000068704740F2000040F26C11C2F2000062
:101AD000C2F2000100780A681044086070470000F4
:101AE00080B543F60040C4F20200016841F4007181
:101AF0000160016841F480610160016841F4807116
:101B00000160032000F074F80F2000F005F800F0E9
:101B100027F8002080BD000070B540F20006C2F238
:101B2000000640F208013278C2F200014FF47A73E5
:101B30000968B3FBF2F20446B1FBF2F1084600F08B
:101B40004FFB0F2C4FF0010508D838B94FF0FF308C
:101B500021460022002500F01FF87460284670BD61
:101B600082B0002043F640010190C4F202014A68AD
:101B700042F480424A604A6802F480420192019A2B
:101B80000090086840F080500860086800F08050BD
:101B90000090009802B0704710B54EF60C5CCEF283
:101BA000000CDCF80030C3F3022E8EF00704042C86
:101BB00028BF0424BEF103034FF0FF3E0EFA04F4E5
:101BC00038BF0023A14399400EFA03F39A4311430F
:101BD00000F00F0200F160430901043A03F5644389
:101BE0006244002848BF02F10C03197010BD0000C8
:101BF0004EF60C51CEF200010A684FF6FF031A4070
:101C000060F30A2242F0806040F0FD700860704787
:101C1000002804BF012070472DE9F04143F6080871
:101C2000C4F202080446D8F8F8030D4600F0070095
:101C3000884207D288F8F853D8F8F80300F0070074
:101C4000A84277D12068810717D5410705D5D8F874
:101C5000001041F4E051C8F80010010705D5D8F88C
:101C6000001041F46041C8F80010D8F80010A268D4
:101C700021F0F0011143C8F80010C00740D1D8F896
:101C8000F80300F00700A84207D988F8F853D8F8FD
:101C9000F80300F00700A8424CD12068410707D59F
:101CA000D8F80010E26821F4E0511143C8F80010A0
:101CB000000708D5D8F80000216920F4604040EA08
:101CC000C100C8F8000000F07DF8D8F8001043F219
:101CD0005852C1F30311C0F60002515C40F20802F1
:101CE00020FA01F140F20400C2F200000068C2F2E2
:101CF00000021160FFF710FF0020BDE8F08100BF77
:101D00006068811E022907D258F8081C89015CBF4F
:101D10000120BDE8F08111E0012807D158F8081C26
:101D200089035CBF0120BDE8F08107E058F8081C7A
:101D3000890703D40120BDE8F08100BFD8F8001066
:101D400021F003010843C8F80000FFF7B5FE06467E
:101D500041F28837D8F80000616800F00C00B0EB61
:101D6000810F8CD0FFF7A8FE801BB842F2D9032068
:101D7000BDE8F08140F2080043F60801C2F200001D
:101D8000C4F202010068096843F26852C1F382217B
:101D9000C0F60002515CC8407047000040F20800E5
:101DA00043F60801C2F20000C4F2020100680968AB
:101DB00043F26852C1F34231C0F60002515CC840A0
:101DC0007047000010B543F60404C4F202046068D2
:101DD00000F00C0142F200400829C0F2F40007D0E4
:101DE000042918BF10BD41F20020C0F27A0010BDD6
:101DF000216801F03F02216823684902C3F388117A
:101E000006D4A1FB00010023FEF7D9FA07E000BFCA
:101E100041F20020C0F27A004843B0FBF2F02168A2
:101E20000222C1F3014102EB4101B0FBF1F010BD10
:101E3000002804BF012070472DE9F04182B004461C
:101E4000007843F60006C007C4F202060CD0B06862
:101E500000F00C00042840F081803068800303D536
:101E60006068002800F06A81207880071BD5B06880
:101E700010F00C0F09D0B06800F00C00082840F0FA
:101E800087807068400200F183803068800703D546
:101E9000E068012840F052813068216920F0F800A4
:101EA00040EAC10030602078000713D42078400752
:101EB0002AD4A569002D00F03C81B06800F00C0028
:101EC000082840F0A180012D40F01081012002B0CF
:101ED000BDE8F0816069002840F20000C4F24720AC
:101EE00000F07E800121C0F8801EFFF7E5FD054669
:101EF000706F8007DAD4FFF7DFFD401B0228F7D9A7
:101F0000032002B0BDE8F081306C5FEAC0080AD45B
:101F100000200190306C40F080503064306C00F054
:101F200080500190019847F20007C4F2000738681A
:101F3000C00547D4386840F480703860FFF7BCFDB6
:101F4000054600BF3868C0053CD4FFF7B5FD401B0F
:101F50000228F7D9032002B0BDE8F081B06800F094
:101F60000C00082803D1706840023FF576AF606826
:101F7000B0F5803F07D0B0F5A02F40F09B803068CF
:101F800040F480203060306840F4803030609BE066
:101F9000E06800285CD00020C4F2472001210160E5
:101FA000FFF78AFD054600BF306880073FF574AF34
:101FB000FFF782FD401B0228F6D9032002B0BDE8DE
:101FC000F08100BFA068012805D0052854D1306FEA
:101FD00040F004003067306F40F00100306755E09A
:101FE0000021C0F8801EFFF767FD0546706F80076F
:101FF0007FF55CAFFFF760FD401B0228F6D9032098
:1020000002B0BDE8F08100BF0027C4F247270020DE
:102010003866FFF751FD022D05460DD1306880016D
:1020200040F19080FFF748FD401B02284FF003006D
:10203000F4D902B0BDE8F0813068800179D5FFF7AE
:102040003BFD401B02284FF00300F5D9F1E700BF2C
:102050000020C4F2472000210160FFF72DFD054656
:10206000306880077FF51FAFFFF726FD401B022871
:102070004FF00300F4D9DCE7316F002821F00101B3
:102080003167316F21F0040131677DD0FFF714FD16
:10209000054641F2883700BF306F800700F1868027
:1020A000FFF70AFD401BB842F6D9032002B0BDE895
:1020B000F08100BF3168002821F48031316031683F
:1020C00021F4802131607BD0FFF7F6FC054600BF8C
:1020D000306880033FF5C8AEFFF7EEFC401B642874
:1020E000F6D9032002B0BDE8F08100BF7068E16955
:1020F00000F480028A4221D1216A00F03F028A4224
:102100001CD147F6C071626A0140B1EB821F15D144
:10211000A16A4FF6FF73C903994300F44032A1F559
:1021200080318A420AD1E16A00F07060B0EB016F41
:1021300004D1002002B0BDE8F08100BF012002B050
:10214000BDE8F08104F11C052FCD084340EA821060
:10215000D9034FF6FF729143A1F5803140EA056043
:102160000843706001203866FFF7A6FC044600BFF4
:1021700030688001DDD4FFF79FFC001B02284FF080
:102180000300F5D955E700BFFFF796FC054641F27D
:10219000883700BF306F800708D5FFF78DFC401BE4
:1021A000B8424FF00300F5D943E700BFB8F1000F84
:1021B0003FF57FAE306C20F08050306479E600BF90
:1021C000FFF77AFC054600BF306880037FF54CAE10
:1021D000FFF772FC401B64284FF00300F4D928E796
:1021E000411E0020B0EB116F1CBF012070474EF262
:1021F0001002CEF2000251604EF62351CEF20001E1
:10220000F0230B700721906011607047002804BF15
:102210000120704710B5044690F8410028B900200D
:1022200084F84000204600F021F8242084F8410082
:102230002068C16821F40051C160204600F054FBC1
:102240002068016921F490410161416921F02A016E
:102250004161C16841F40051C160002020216064E7
:1022600084F8411084F84210606310BD80B586B0D8
:10227000006844F60002C4F2000200219042CDE959
:102280000411CDE90211019124D044F20041C4F2BD
:102290000001884248D1002043F630010090C4F28A
:1022A00002010A6942F400320A610A6902F400324A
:1022B0000092009A0090086840F0010008600868E9
:1022C0000C2100F00100009000980020C4F20200F0
:1022D0001FE000BF43F630000091C4F20200026923
:1022E00042F480220261026902F480220092009A84
:1022F0000091016841F00201016000684FF4406103
:1023000000F00200009000980020C4F2020000F5E6
:1023100080600191022102910121CDE90311072181
:10232000059101A9FFF7F2FA06B080BD2DE9F0434F
:1023300081B0044690F84200202825D18846002923
:102340004FF0010000F0FA801746002A00F0F680F6
:10235000002022211D46606484F842102063FFF7AC
:10236000ABFBA785E785A1680746B1F5805F02D181
:102370002069002854D046464FF00008E08D002820
:1023800052D005F101090FE0022001B0BDE8F08351
:10239000406800266FF35F2028F8020BE08D0138BB
:1023A000E085E08D00283FD020680168890617D4B9
:1023B000B9F1000F22D0002D00F0C480FFF77CFBA4
:1023C000C01BA84200F2B6802068C168490744BF1C
:1023D00001685FEA017129D401688906EED500BF62
:1023E000002ED5D0A168B1F5805F15D009B921695B
:1023F00091B1406800F07F000FE000BF01688906DE
:10240000EED4016889065CBF01685FEA8161E7D4A8
:1024100001688906F2D5E3E7406806F8010BBDE7DD
:102420000026E08D0028ACD1002084E0002100913E
:102430000168009140680090009800BF206850E853
:10244000030F216820F4907041E80302BAB32068BA
:1024500050E8030F216820F4907041E8030272B342
:10246000206850E8030F216820F4907041E80302CF
:102470002AB3206850E8030F216820F4907041E8E7
:102480000302002ADAD11AE0206850E8050F21681B
:1024900020F0010041E80502DAB1206850E8050F9C
:1024A000216820F0010041E8050292B1206850E85F
:1024B000050F216820F0010041E805024AB12068BB
:1024C00050E8050F216820F0010041E80502002ACC
:1024D000DAD1206B012824D1206850E8030F21684D
:1024E00020F0100041E80302DAB1206850E8030F41
:1024F000216820F0100041E8030292B1206850E802
:10250000030F216820F0100041E803024AB120685F
:1025100050E8030F216820F0100041E80302002A70
:10252000DAD1202084F84200002008212063616471
:1025300084F840000320202184F8421001B0BDE857
:10254000F08300BFFFF7B8FAF4E700002DE9F0418F
:10255000044690F8410020281CBF0220BDE8F0810D
:102560000D4600294FF0010000F0AA801646002A0F
:1025700008BFBDE8F081002060642120984684F8FF
:102580004100FFF799FAA684E684A1680646B1F5F2
:10259000805F02D12069002862D02F460025E08CA0
:1025A000002861D018F1010018D0B8F1000F37D120
:1025B000216808E017F8010B4860E08C0138E084DE
:1025C000E08C002851D00868000673D5002FF1D1A7
:1025D00035F8020B00276FF35F20EDE7216802E07A
:1025E0000868000609D40868000606D408680006D2
:1025F0005CBF08685FEA0060F2D51FB117F8010BF5
:1026000005E000BF35F8020B00276FF35F2048603C
:10261000E08C0138E084E08C0028E4D125E000BFA4
:10262000216800BF0868000608D4FFF745FA801B40
:10263000404541D82168C868F4E700BF17B117F8D2
:10264000010B04E035F8020B00276FF35F204860B0
:10265000E08C0138E084E08C0028E3D105E000BF85
:102660000027E08C00289DD12168086840061FD40F
:10267000B8F1000F1ED018F101000FD10868400614
:1026800016D40868400613D40868400610D40868B9
:1026900040064FF00000F1D50FE000BFFFF70CFA45
:1026A000801B404508D82068C16800684006F5D501
:1026B000002002E0FFF700FA0320202184F84110F7
:1026C000BDE8F081FEE70000014640F60040C4F29C
:1026D00002000022FFF7EAB9014640F60040C4F2CA
:1026E00002000122FFF7E2B980B540F2700043F228
:1026F0000001C2F20000C4F202010160FFF7C4F859
:10270000002808BF80BDBDE88040FFF783B8000007
:1027100070B586B0002543F6300005950095C4F2EB
:102720000200016840F6004441F080010160016848
:10273000C4F2020401F08001009100990095016843
:10274000002241F00101016001684FF4704601F080
:102750000101009100990095016841F002010160BA
:10276000016801F00201009100990095016841F0B3
:102770000801016000684FF4704100F0080000900B
:1027800000982046FFF792F90120CDE90205049058
:1027900001A920460196FFF7B9F806B070BD000008
:1027A00080B540F2780044F20041C2F20000C4F269
:1027B000000100234FF00C0C4FF4E13280E80E00D2
:1027C000C0E90333C0E905C3C361FFF71FFD00285B
:1027D00008BF80BDBDE88040FFF71CB880B540F25F
:1027E000C00044F60001C2F20000C4F20001002360
:1027F0004FF00C0C4FF4E13280E80E00C0E90333D7
:10280000C0E905C3C361FFF701FD002808BF80BD13
:10281000BDE88040FEF7FEBFFEE70000FEE70000D7
:102820007047000070470000FFF74CB9B0B592B098
:10283000002443F64000CDE90A44CDE9084405945C
:10284000CDE90344CDE901440094C4F202000168DB
:10285000022541F080510160006800F08050009036
:10286000009847F200000094C4F20000016841F4AF
:10287000804101600068A82100F480400090009829
:10288000012006904FF4803007904FF480000D90A7
:1028900004200E90119006A80C95CDE90F15FFF7B6
:1028A000C7FA18B172B600BFFEE700BF0F20CDE92E
:1028B00001054FF4A05004904FF48050059001A8FA
:1028C00005210394FFF7A4F910B172B6FEE700BF2B
:1028D00012B0B0BD4EF68850CEF20000016841F44F
:1028E000700101607047000010B504460068D4E92B
:1028F00002C22369016921F44051114301616269F7
:1029000043EA0C01E3691143C268194349F20C63BD
:102910009A431143C1604169A26921F4407141F2B7
:102920000043114340F48062C4F201039A424161C2
:1029300002D1FFF733FA01E0FFF71CFAE16963689F
:102940001922B1F5004FA0FB020123D15A00DB0F81
:10295000FDF735FD48F21F51C5F2EB11A0FB012335
:102960005A094FF69C73C0F6FF7303F1805302FBC4
:102970000300322303EBC000A0FB01014FF4F87009
:1029800000EA111000EB0210C1F342110844216863
:10299000886010BD9A009B0FFDF711FD48F21F5192
:1029A000C5F2EB11A0FB01235A094FF69C73C0F648
:1029B000FF7302FB0300322303EB0010A0FB0101B5
:1029C000F02000EA511000EB0210C1F3431108445B
:1029D0002168886010BD0000FEE7000083B0B0B53C
:1029E0009BB004461FA802AD0EC028466421FDF727
:1029F00071FD1FAA284621460192FDF759FDC2B27A
:102A000040F2C000C2F2000029464FF0FF33FFF74A
:102A10009DFD1BB0BDE8B04003B070472DE9F04705
:102A200082B040F20814C2F2000420466421FDF78F
:102A300051FD40F27800C2F20000214601224FF021
:102A4000FF330125FFF772FC20B1284602B0BDE834
:102A5000F08700BF214611F8012B40F27800C2F246
:102A600000004FF0FF33FFF761FC28B10125284635
:102A700002B0BDE8F08700BF6078102840F08E807B
:102A80002078411C54FA81F151F8048C40F2157100
:102A90000338C0F206215FFA80FA00915046042103
:102AA000FDF752FCBAF1000F814632D0BAF1040FA3
:102AB0000AF0030C02D2002117E000BF0AF0FC016B
:102AC0004942A9F110036FF0030200BFA71838793B
:102AD00004327E79BD79FF7943F8100F88180430ED
:102AE000C3E90165DF60F1D1111DBCF1000F10D009
:102AF000605CBCF1010F49F821000AD0481C225C3F
:102B0000BCF1020F49F8202003D0881C215C49F851
:102B1000201040F27004C2F200042046494652469A
:102B2000FEF77CFE216804468A6842F00100886056
:102B30004846FDF71DFC44451ED1042040F27804B0
:102B40008DF80600CD20C2F200048DF805000DF1CD
:102B50000501204601224FF0FF33FFF7F7FC0DF18E
:102B60000601204601224FF0FF33FFF7EFFC6946D4
:102B7000204604220EE000BF4FF40050FFF7ACFDEA
:102B8000AB208DF8070040F27800C2F200000DF192
:102B9000070101224FF0FF33FFF7D8FC002528463C
:102BA00002B0BDE8F0870000FEF79AFFFFF73EFE97
:102BB000FFF7AEFDFFF798FDFFF7F2FDFFF70EFE02
:102BC0000BA0FFF70BFF00BF4FF46040FFF77CFD49
:102BD0004FF48050FFF780FDFFF720FF4FF4805047
:102BE000FFF772FD4FF47A70FEF77CFEECE700BF52
:102BF000426F6F746C6F6164657220496E697469AD
:102C0000616C697A696E6720446F6E65210D0A00F8
:102C10005FEA400C08BF91F0000F4FEA8C234FEAA7
:102C2000C12243EA51514FEA1C5018BF00F5F04051
:102C30004FEA300018BF41F000415FEA6C5C00F0E1
:102C40002980BCF1FF3F08BF40F080407047130C63
:102C500006BF12044FF0100C4FF0000C130E04BF0F
:102C600012020CF1080C130F04BF12010CF1040C3A
:102C7000930F04BF92000CF1020CD30F04BF52005B
:102C80000CF1010C11464FF00002A0F11F00A0EB67
:102C90000C00704711F0004F08BF704731F0004141
:102CA0003FF4D5AF0B0C06BF09044FF0100C4FF0EA
:102CB000000C0B0E04BF09020CF1080C0B0F04BF33
:102CC00009010CF1040C8B0F04BF89000CF1020CFC
:102CD000CB0F04BF49000CF1010CCCF1200322FA08
:102CE00003F341EA030102FA0CF2A0EB0C0000F13D
:102CF0000100704723F07F4720F07F4C80EA0300FB
:102D000000F00040ACEB070303F57C5303F1FF0335
:102D10002DE9804909B44FEA144324EA03484FEAF5
:102D2000154B25EA0B4E0FF2042606EB13273E78CF
:102D300003FB0667C7F5000707FB06F64FEAD64612
:102D400006F102064FEA543707FB066CCCF1005C33
:102D50004FEA1C472CEA074C0CFB06F507FB06F470
:102D600004EB15464FEA961649085FEA320234BF73
:102D700000204FF000404FEAD13706FB07FC4FEA36
:102D80001C4C0CFB0BF7D21B03FB0CF761EB070190
:102D90000CFB0EF7B0EB074072EB17420CFB08F789
:102DA00034BFA2EB0742B2EB074261EB17414FEA97
:102DB0000C444FEA910706FB07FC4FEA1C4C0CFB46
:102DC0000BF7B0EBC74072EB573203FB0CF734BF85
:102DD000A2EBC742B2EBC74261EB57310CFB0EF7D7
:102DE000B0EBC70072EB57720CFB08F734BFA2EBD5
:102DF000C702B2EBC70261EB57714FEA816141EA4A
:102E000092114FEA826242EA90124FEA806004EB2C
:102E1000CC04039F4FEAD13706FB07FC4FEA1C4C5A
:102E20000CFB0BF7D21B03FB0CF761EB07010CFB50
:102E30000EF7B0EB074072EB17420CFB08F734BFFC
:102E4000A2EB0742B2EB074261EB17414FEA8C5508
:102E500004EB9C244FEA910706FB07FC4FEA1C4C4D
:102E60000CFB0BF7B0EBC74072EB573203FB0CF7D0
:102E700034BFA2EBC742B2EBC74261EB57310CFB48
:102E80000EF7B0EBC70072EB57720CFB08F734BFBC
:102E9000A2EBC702B2EBC70261EB57714FEA816147
:102EA00041EA92114FEA826242EA90124FEA806050
:102EB00015EB4C2544F100044FEAD13706FB07FC23
:102EC0004FEA1C4C0CFB0BF7D21B03FB0CF761EB1E
:102ED00007010CFB0EF7B0EB074072EB17420CFB3F
:102EE00008F734BFA2EB0742B2EB074261EB174190
:102EF0004FEA813141EA92414FEA823242EA9042FE
:102F00004FEA80304FEA0C7615EB1C1544F10004B3
:102F100048EA03434EEA0B484FF0000EB2EB080CB0
:102F200071EB030724BF624639464EEB0E0E4FF09D
:102F3000000B0018524149414BEB0B0BB2EB080C54
:102F400071EB03077BF1000B24BF624639464EEB61
:102F50000E0E4FF0000B0018524149414BEB0B0B8A
:102F6000B2EB080C71EB03077BF1000B24BF624648
:102F700039464EEB0E0E51EA020718BF46F0010625
:102F800016EB0E7655F1000254F1000103D5BDE8B1
:102F90008901BDE80088BDE88901BDE80048B6198F
:102FA000524141EB0101A3F10103704780807F7E14
:102FB0007D7C7B7A797877767675747372717170AF
:102FC0006F6E6E6D6C6C6B6A6A6968686766666561
:102FD0006464636362616160605F5F5E5E5D5D5CEF
:102FE0005C5B5B5A5A595958585757565655555560
:102FF0005454535352525251515050504F4F4F4EC0
:103000004E4D4D4D4C4C4C4B4B4B4A4A4A4949490D
:10301000484848474747474646464545454444444F
:103020004443434343424242424141419C46002B78
:1030300030D477002BD04FEA37071CB503B44FF0DC
:1030400010004FF01001BAF1000F06D0BCF1000FD4
:10305000DCBF40F0080040F008014FF000000FBC5A
:10306000BDE810400BF1010BBBF1010F08BF5FEA97
:10307000170722BF12F1010211F101014FF00041C7
:1030800043F1000300F0004043EA00007047F9D329
:103090005708D0E746EA06464FEA164613F1400FB6
:1030A0001FDD13F1200FDFBF16430A460021203336
:1030B0005B42BED0C3F1200746EA06464FEA1646F9
:1030C00002FA07F746EA070622FA03F2C3F12007DD
:1030D00001FA07F742EA070221FA03F14FF0000371
:1030E000A7E746EA020646EA06464FEA164646EAD9
:1030F0000106BCBF46EA0646360C4FF000034FF00F
:1031000000024FF0000194E72DE9804C70B49A461C
:10311000934691E8380007C831EA400C48BF34EACA
:10312000430C03D5FFF7E6FDFFF780FFF0BCBDE8D9
:10313000008C2DE9804C70B49A46934691E8380093
:1031400007C810F0804F08BF13F0804F03D100F084
:1031500005F8FFF76BFFF0BCBDE8008C20F07F475F
:1031600023F07F4C80EA030000F0004007EB0C03E3
:10317000A3F57C53A3F1FE0392F0000F00F0B3809F
:1031800095F0000F00F077802DE901494FEA1140DA
:1031900021EA00484FEA144624EA064700FB06FCF1
:1031A00008FB06F607FB08F818EB06484CEB164C34
:1031B00000FB07F718EB07484CEB17404FEA124BA0
:1031C00022EA0B4E4FEA154625EA06470BFB06FCA2
:1031D0000EFB06F607FB0EFE1EEB064E4CEB164CE6
:1031E0000BFB07F71EEB074E4CEB174B18EB0B08CE
:1031F00040F1000018EB0E0B58EB000840F1000006
:103200008F1A4FF000014FF000063CBFC943661B08
:1032100014BFB5EB040C00213CBFC943F61B4FEAB9
:10322000174427EA04454FEA1C472CEA074C04FBE5
:10323000076205FB07F70CFB05F616EB074642EBAA
:10324000174204FB0CFC16EB0C4642EB1C421BEB3A
:10325000060658EB020241414EEA8E0E46EA9E06F1
:1032600001D5BDE80189B619524141EB0101A3F135
:103270000103BDE801894FEA144524EA05464FEAF7
:10328000114721EA074C05FB07F406FB07F70CFB87
:1032900006F111EB074144EB174405FB0CFC11EB65
:1032A0000C4144EB1C444FEA124722EA074C05FB51
:1032B00007F206FB07F70CFB06F616EB074642EB98
:1032C000174205FB0CFC16EB0C4642EB1C456A183A
:1032D00054F1000148BF7047B619524141EB01015A
:1032E000A3F10103704795F0000F37D04FEA114268
:1032F00021EA02464FEA144724EA074C02FB07F191
:1033000006FB07F70CFB06F414EB074441EB1741EF
:1033100002FB0CFC14EB0C4441EB1C414FEA15473B
:1033200025EA074C02FB07F506FB07F70CFB06F640
:1033300016EB074645EB174502FB0CFC16EB0C465B
:1033400045EB1C42121951F1000148BF7047B619F4
:10335000524141EB0101A3F1010370474FEA1445CB
:1033600024EA05464FEA114721EA074C05FB07F11D
:1033700006FB07F70CFB06F212EB074241EB174185
:1033800005FB0CFC12EB0C4251EB1C414FF000060C
:1033900048BF7047921841EB0101A3F10103704748
:1033A00003B401984100009850EAC12018BF0420DE
:1033B0004A0D18BF40F0010040F2FF72B2EB515FBE
:1033C00008BF40F00200012808BF052002B0704786
:1033D00030380A2801D201207047002070470000D1
:1033E00010B500290AD00878002807D0054878448D
:1033F000FEF7C6F9002801D0002010BD024878442D
:1034000010BD0000A20100009A01000010B50029C3
:103410000AD00878002807D005487844FEF7B0F9AC
:10342000002801D0002010BD0248784410BD0000E3
:10343000920100008A010000F1EE100A4FF6FF71C0
:10344000C0F2C03120EA010040F04070E1EE100A05
:103450007047FDF751BDFDF785BE0000000000007C
:1034600000000000303132333435363738394142CC
:1034700043444546403058003031323334353637D6
:103480003839616263646566403078000400000882
:103490000000000000000002000100001030313286
:1034A0003334353637383961626364656678700065
:1034B000303132333435363738394142434445466A
:1034C0005850000002400000000000A00000000072
:1034D00005400000000000C8000000000C40000093
:1034E0000000409C00000000194000000020BCBE0D
:1034F0000000000034400000BFC91B8E0000000423
:10350000B5400000504BCFD06607E2CF010000006D
:103510006C4100003E8251AADFEEA734010000009A
:10352000D9420000DCB5A0E23A301F97FFFFFFFF51
:10353000B4450000FD25A0C8E9A3C14FFFFFFFFF70
:10354000FF3F00000000008000000000FF3F00007F
:1035500000000080000000000000000000000000EB
:103560000102030406070809000000000102030429
:10357000C03600080000002010000000EC01000828
:10358000D036000810000020600700000C02000880
:103590001C00000043000000F8FFFFFF0C000000CB
:1035A0000E0000000F0000002E00000010010000BF
:1035B00043000000F8FFFFFF004040404040404013
:1035C00040404141414141404040404040404040F6
:1035D000404040404040404040050202020202029A
:1035E00002020202020202020220202020202020E9
:1035F00020202002020202020202909090909090FD
:1036000010101010101010101010101010101010BA
:10361000101010100202020202028888888888882E
:10362000080808080808080808080808080808081A
:103630000808080802020202400000000000000022
:10364000000000000000000000000000000000007A
:10365000000000000000000000000000000000006A
:10366000000000000000000000000000000000005A
:10367000000000000000000000000000000000004A
:10368000000000000000000000000000000000003A
:10369000000000000000000000000000000000002A
:1036A000000000000000000000000000000000001A
:1036B000000000000000000000000000000000000A
:1036C00001000000100000000024F40000000000D1
:040000050800018965
:00000001FF
