:020000040800F2
:10000000B008002065020008952900084D28000866
:100010009129000895150008512B000800000000E8
:100020000000000000000000000000009D29000802
:10003000991500080000000099290008A12900086E
:100040007F0200087F0200087F0200087F0200088C
:100050007F0200087F0200087F0200087F0200087C
:100060007F0200087F0200087F0200087F0200086C
:100070007F0200087F0200087F0200087F0200085C
:100080007F0200087F0200087F0200087F0200084C
:100090007F0200087F0200087F0200087F0200083C
:1000A0007F0200087F0200087F0200087F0200082C
:1000B0007F0200087F0200087F0200087F0200081C
:1000C0007F0200087F0200087F0200087F0200080C
:1000D0007F0200087F0200087F0200087F020008FC
:1000E0007F0200087F0200087F0200087F020008EC
:1000F0007F0200087F0200087F0200087F020008DC
:100100007F0200087F0200087F0200087F020008CB
:100110007F0200087F0200087F0200087F020008BB
:100120007F0200087F0200087F0200087F020008AB
:100130007F0200087F0200087F0200087F0200089B
:100140007F0200087F0200087F0200087F0200088B
:100150007F0200087F0200087F0200087F0200087B
:100160007F0200087F0200087F0200087F0200086B
:100170007F0200087F0200087F02000800000000E4
:100180007F0200087F02000800F002F800F05AF831
:1001900014A696E8000CB244B344DA4501D100F04D
:1001A00051F8BAE80F000FA696E83000A5EB040559
:1001B00004EB0607AAEB0704A7F101074FEA1515A0
:1001C0004FEA3414A4F10104AC4201D300F03AF830
:1001D00013F0010F18BFFB1A43F0010300F001F800
:1001E000DBE71847702F0000902F0000103A24BF63
:1001F00078C878C1FAD8520724BF30C830C144BF8C
:1002000004680C6070470000704700000023002461
:1002100000250026103A28BF78C1FBD8520728BF16
:1002200030C148BF0B607047642900F0BF80782957
:1002300000F02381002070471FB502F056FD1FBD5E
:1002400010B510BD00F0C4FA1146FFF7F5FF02F03B
:100250001BFD00F0E2FA03B4FFF7F2FF03BC00F06D
:10026000E9FA00000948804709480047FEE7FEE731
:10027000FEE7FEE7FEE7FEE7FEE7FEE7FEE7FEE756
:1002800004480549054A064B704700004D2A0008FE
:1002900089010008B0020020B0080020B00400204E
:1002A000B004002053EA020C00F069802DE9F04B05
:1002B0004FF00006002B1FBFB3FA83F503FA05F4D5
:1002C00024FA05F65E4012BF1643B2FA82F502FA2E
:1002D00005F4C5F120051EBF22FA05FC44EA0C0412
:1002E000203556EA044C4FEA144418BF641C4FF002
:1002F00000084FF00009904271EB030C39D300293C
:1003000019BFB1FA81F701FA07F6B0FA80F700FADF
:1003100007F6C7F120071EBF20FA07FC46EA0C06C5
:100320002037B6FBF4FCA7EB0507103F07F01F0BC7
:10033000CBF120062CFA06F60CFA0BFB44BFB346B1
:100340000026202FA4BF5E464FF0000B5BEA060C90
:1003500008BF4FF0010B19EB0B0948EB0608ABFB8C
:10036000027C06FB02CC0BFB03CCC01B71EB0C0127
:10037000C1E70B46024641464846BDE8F08B13B53F
:10038000084318BF4FF0FF300146AFF30080BDE8CF
:100390001C4070470FB4044910B503AA029800F03E
:1003A00001FA10BC5DF814FB700000202DE9F0414B
:1003B0000646002410687529314616A510D0AFF303
:1003C0000080002802DA404213A507E031688A075E
:1003D00001D512A502E0490704D511A5012401E0C9
:1003E000AFF3008000210A2206F1240709E0B0FBE8
:1003F000F2FCB0FBF2F302FB1C00303078541846DC
:10040000491C0028F3D123462A463046BDE8F04176
:1004100000F056B9000000002D0000002B00000085
:1004200020000000F0B40D460188090502D5214CDA
:100430007C4402E01F4C7C440E34002100F1240671
:1004400008E002F00F071209E75D42EA03721B0998
:100450007754491C52EA0307F3D1027800231207AC
:1004600004D5702D06D009B1022311342246F0BC08
:1004700000F026B901231034F8E770B504460D46A4
:1004800021461068AFF30080024629462046BDE8A9
:1004900070400023C6E7D21D22F00703D3E90023F2
:1004A000C0E70368126843F0200303600823C361B8
:1004B0000023B7E7D02800002DE9F05F8946044605
:1004C0004FF0000ADFF874B1FB44C0F820A02046CA
:1004D000E1688847002874D0252806D0D4E9012196
:1004E0009047206A401C2062F1E700265F462046C4
:1004F000E16888472028054607DB312D05D27819A9
:1005000010F8200C08B10643F1E7B00701D526F03A
:100510000406C4F81CA00027C4F818A02A2D09D08E
:10052000284602F0DBFB38B304EB8708303DC8F8FF
:10053000185019E059F8041B204604EB870291611A
:10054000E1688847012F054618D1E069002820DAC4
:1005500026F020061DE0D8F8180000EB800005EB1F
:1005600040003038C8F818002046E1688847054642
:1005700002F0B4FB0028EED1012F0AD02E2D08D1B5
:100580002046E16888477F1C0546022F46F020067A
:10059000C4DBA069002803DA404246F00106A061EE
:1005A000F00701D026F010066C2D0BD0682D09D075
:1005B0004C2D39D06A2D35D0742D35D07A2D33D0CD
:1005C00016E038E0E1682F4620468847B8420546E5
:1005D00009D16C2F26D04FF48060E1680643204695
:1005E0008847054604E06C2F1AD04FF4807006430C
:1005F0000DB3A5F14100192802D8203546F4006654
:100600004A462946204626604E46FFF70DFE80B139
:1006100001280BD0F61D26F0070000F1080956E767
:100620004020E4E78020D8E70020D6E706F104095F
:100630004DE7284652E7206ABDE8F09F6028000099
:1006400010B5044603E002F0FDFA401C09D014F88E
:10065000010B05490028F6D1BDE810400A2002F040
:10066000F1BA4FF0FF3010BD700000204FF00002D3
:1006700000B5134694469646203922BFA0E80C5098
:10068000A0E80C50B1F12001BFF4F7AF090728BF73
:10069000A0E80C5048BF0CC05DF804EB890028BFEF
:1006A00040F8042B08BF704748BF20F8022B11F018
:1006B000804F18BF00F8012B704770477047704794
:1006C0002DE9F0470D4699469246044600F124086C
:1006D0000168880604D5E06921F01001216000E07E
:1006E0000120A84201DD471B00E00027A1697A191B
:1006F00002EB0900081AA0612078C00602D4204647
:10070000AFF30080002608E0D4E901211AF80600C2
:100710009047206A401C761C20624E45F4DB20780E
:10072000C0060AD52046AFF3008006E0D4E90121D7
:1007300030209047206A401C2062381EA7F1010734
:10074000F4DC07E0D4E9012118F805009047206A9D
:10075000401C2062281EA5F10105F3DC2046AFF302
:1007600000802078000602D50220BDE8F087012035
:10077000FBE7000001694A1C02610878704700B578
:100780008FB0CDE901310021059105497944CDE9CA
:10079000031011466846FFF78FFE0FB000BD000042
:1007A000E5FFFFFF074B70B50D467B44FFF7E7FF02
:1007B0000446284600F008F810B14FF0FF3070BD35
:1007C000204670BD97240000007B00F08000704739
:1007D000754600F02BF8AE4605006946534620F0FA
:1007E0000700854618B020B5FFF74AFDBDE8204058
:1007F0004FF000064FF000074FF000084FF0000BDD
:10080000AC46ACE8C009ACE8C009ACE8C009ACE84B
:10081000C00921F007018D46704710B50446AFF3BB
:1008200000802046BDE81040FFF715BD0048704726
:100830001000002001491820ABBEFEE72600020090
:10084000704700002DE9F04F87B0AA20059043F2D1
:10085000C000C0F60000FFF7F3FE9AA0FFF7F0FE1D
:1008600040F27C18C2F2000898F8000040F2C40977
:10087000013058FA80F151F804AC4FF6FC7151FA8E
:1008800080F084B20025C2F2000900958CB140F2DC
:10089000C40BA8F10106C2F2000B6F4616F8010F57
:1008A000394600905846012200F0FCFE013CF5D18B
:1008B0000546D9F80000816841F00101816042F6E7
:1008C000C750C0F600005146FFF764FD42F6E850FD
:1008D000C0F600002946FFF75DFD554556D187A0BB
:1008E000FFF7AEFE0C2040F2CC048DF80000CD20C6
:1008F000C2F200048DF81B000DF11B0120460122FD
:100900004FF0FF3301F0E6FE05466946204601221E
:100910004FF0FF3301F0DEFE98F8021098F8032044
:10092000054342F65550C0F60000FFF733FD98F836
:10093000026098F80340A0190C28204688BFC6F131
:100940000C0088F80300C1B273A0FFF723FD0B2E43
:1009500098BF0C2C40D902208DF81B0040F2CC002F
:10096000C2F200000DF11B0101224FF0FF3301F034
:10097000B1FE9DF81B1040EA050442F68650C0F611
:100980000000FFF707FD00279CB916E054A0FFF711
:1009900057FEAB208DF8000040F2CC00C2F2000000
:1009A000694601224FF0FF3301F094FE0446002710
:1009B0001CB14FF4804001F04BFF1FB14FF40050C9
:1009C00001F046FF0598013003D04FF4004001F0DC
:1009D0003FFF07B0BDE8F08F012098F803100190A9
:1009E00098F8020081F00C0102900843C1B2B1FAFC
:1009F00081F0440943F21C10022643F23812C0F67B
:100A000000000496C0F60002002908BF1046FFF758
:100A100017FE009401F026F8044642F6357042F6BF
:100A20009161C0F60000C0F60001002C08BF084626
:100A3000FFF706FE684605A900F098FE044342F65B
:100A4000617042F6BA61C0F60000C0F6000108BF4E
:100A50000846FFF7F5FD059942F60960C0F600006B
:100A6000FFF798FC00F064FF50EA040742F60B70B1
:100A700042F66A61C0F60000C0F6000108BF0846F1
:100A8000FFF7DEFD05980DF11B01013040F2CC00AF
:100A9000C2F200004FF001024FF0FF3308BF0326FF
:100AA0008DF81B6001F016FE9DF81B1040EA05044E
:100AB00042F69B50C0F60000FFF76CFC002C7FF460
:100AC00078AF7AE7426F6F746C6F6164657220452E
:100AD0007261736520466C617368200D0000000030
:100AE00043524320566572696669636174696F6E2B
:100AF000204661696C6564200D000000435243206C
:100B0000566572696669636174696F6E20506173BE
:100B10006564200D0000000041637475616C204124
:100B2000636375726174652052656D61696E696E8B
:100B30006720536563746F72732069732025640D99
:100B40000A0000002DE9F04784B040F27C16C2F2A2
:100B500000063078441C56FA84F050F8049C42F2A7
:100B60000000CEF2040000686FF31F30ADF80600FD
:100B700043F2C000C0F60000FFF762FD3FA0FFF7A0
:100B80005FFD4FF6FC7050FA84F084B240F2C40866
:100B90000025C2F2000802958CB140F2C40A013E61
:100BA000C2F2000A02AF00BF16F8010F39460290E8
:100BB0005046012200F076FD013CF5D10546D8F8FB
:100BC0000000816841F00101816042F6C750C0F623
:100BD00000004946FFF7DEFB42F6E850C0F6000091
:100BE0002946FFF7D7FB4D452CD142F6F970C0F6E8
:100BF0000000FFF725FD022040F2CC048DF80E0026
:100C0000CD20C2F200048DF80D000DF10D0120463B
:100C100001224FF0FF3301F05DFD05460DF10E019D
:100C2000204601224FF0FF3301F054FD05430DF142
:100C30000601204602224FF0FF3301F04BFD28430E
:100C4000A8B918E042F6B870C0F60000FFF7F8FC4B
:100C5000AB208DF80F0040F2CC00C2F200000DF185
:100C60000F0101224FF0FF3301F034FD18B14FF4B2
:100C7000804001F0EDFD04B0BDE8F087426F6F7475
:100C80006C6F6164657220476574204368697020E9
:100C90004964656E74696669636174696F6E204E3C
:100CA000756D6265720D00002DE9F04786B040F267
:100CB0007C16C2F200063078441C43F2C000C0F635
:100CC0000000FFF7BDFC48A0FFF7BAFC56FA84F01D
:100CD00050F8049C41F61810C2F22010039041F223
:100CE0001450C1F21670029041F21010C1F212308D
:100CF00001904FF6FC7050FA84F084B240F2C408C0
:100D00000025C2F2000804958CB140F2C40A013EED
:100D1000C2F2000A04AF00BF16F8010F3946049072
:100D20005046012200F0BEFC013CF5D10546D8F842
:100D30000000816841F00101816042F6C750C0F6B1
:100D400000004946FFF726FB42F6E850C0F60000D7
:100D50002946FFF71FFB4D452AD142F6F970C0F630
:100D60000000FFF76DFC0C2040F2CC048DF8100061
:100D7000CD20C2F200048DF817000DF117012046B6
:100D800001224FF0FF3301F0A5FC054604A92046DF
:100D900001224FF0FF3301F09DFC054301A92046DD
:100DA0000C224FF0FF3301F095FC2843A0B917E067
:100DB00042F6B870C0F60000FFF742FCAB208DF899
:100DC000100040F2CC00C2F2000004A901224FF052
:100DD000FF3301F07FFC18B14FF4804001F038FD83
:100DE00006B0BDE8F08700BF426F6F746C6F61643E
:100DF0006572204765742048656C70204D656E757E
:100E0000200D00002DE9F04784B040F27C16C2F2BC
:100E100000063078441C56FA84F050F8049C40F2E6
:100E20001570C0F20620019043F2C000C0F6000029
:100E3000FFF706FC3FA0FFF703FC4FF6FC7050FAEB
:100E400084F084B240F2C4080025C2F20008029582
:100E50008CB140F2C40A013EC2F2000A02AF00BFE8
:100E600016F8010F394602905046012200F01AFC94
:100E7000013CF5D10546D8F80000816841F0010138
:100E8000816042F6C750C0F600004946FFF782FA7B
:100E900042F6E850C0F600002946FFF77BFA4D45C0
:100EA0002CD142F6F970C0F60000FFF7C9FB042010
:100EB00040F2CC048DF80E00CD20C2F200048DF873
:100EC0000D000DF10D01204601224FF0FF3301F01E
:100ED00001FC05460DF10E01204601224FF0FF33C3
:100EE00001F0F8FB054301A9204604224FF0FF332F
:100EF00001F0F0FB2843B0B919E000BF42F6B8702A
:100F0000C0F60000FFF79CFBAB208DF80F0040F20D
:100F1000CC00C2F200000DF10F0101224FF0FF33AF
:100F200001F0D8FB18B14FF4804001F091FC04B0FF
:100F3000BDE8F087426F6F746C6F61646572204723
:100F400065742056657273696F6E204E756D6265AB
:100F5000720D00002DE9F04F83B040F27C10C2F218
:100F600000000178D0F80280013150FA81F252F885
:100F700004AC4FF6FC7252FA81F18CB240F2C40913
:100F80000025C2F200098DF8035001958CB140F2A2
:100F9000C40B461EC2F2000B01AF00BF16F8010FD2
:100FA000394601905846012200F07CFB013CF5D106
:100FB0000546D9F80000816841F00101816042F6E0
:100FC000C750C0F600005146FFF7E4F942F6E8507A
:100FD000C0F600002946FFF7DDF9554552D1012042
:100FE00040F2CC048DF80A00CD20C2F200048DF846
:100FF00009000DF10901204601224FF0FF3301F0F5
:1010000069FB05460DF10A01204601224FF0FF332E
:1010100001F060FB054340464FF6FF716FF313008C
:1010200028EA010100F1784001F17041B0FA80F046
:10103000B1FA81F140094909084347F6F971CFF641
:10104000FF7101EB9831B1FA81F14909084308F1C8
:1010500060410022B1F5E03F38BF012242EA0006BC
:101060000DF10301204601224FF0FF338DF803609C
:1010700001F030FB40EA05049EB108F10100804711
:101080000FE000BFAB208DF80B0040F2CC00C2F2A5
:1010900000000DF10B0101224FF0FF3301F01AFBAC
:1010A00004461CB14FF4804001F0D2FB03B0BDE810
:1010B000F08F00002DE9F04F85B001208DF80A0077
:1010C00043F2C000C0F60000FFF7BAFAA9A0FFF78C
:1010D000B7FA40F27C17C2F200073878441C39197D
:1010E00051F8045CC11EAAA0FFF754F9B1A029462B
:1010F000FFF750F9B879D7F8028001906FF003003C
:1011000050FA84F040F2C40B0026C2F2000B0396A2
:10111000C0B1A7F1010940F2C4071FFA80FAC2F278
:10112000000703AC19F8010F21460390384601224D
:1011300000F0B8FABAF1010AF4D140F27C17064681
:10114000C2F20007DBF80000816841F00101816014
:1011500042F6C750C0F600002946FFF71BF942F6D9
:10116000E850C0F600003146FFF714F9AE4240F0F7
:1011700089809DA0FFF764FA012040F2CC048DF82D
:101180001200CD20C2F200048DF811000DF1110102
:10119000204601224FF0FF3301F09CFA0DF11201BD
:1011A000204601224FF0FF3301F094FA40464FF6FB
:1011B000FF716FF3130028EA010100F1784001F19B
:1011C0007041B0FA80F0B1FA81F140094909084351
:1011D00047F6F971CFF6FF7101EB9831B1FA81F161
:1011E0004909084308F16041B1F5E03F4FF00001C3
:1011F0004FF0000438BF012108438DF80B004FD099
:1012000043F27300C0F60000FFF71AFA40F2CC0078
:10121000C2F200000DF10B0101224FF0FF3301F08B
:1012200059FA48F20000C0F60000804542D343F26C
:101230002F00C0F60000FFF703FA00F013FC05468C
:1012400042F6357042F69161C0F60000C0F600012A
:10125000002D08BF0846FFF7F3F9019E002E41D08C
:10126000D7F80720022041460023002400F06AFB43
:1012700005433DD042F64160C0F600002146FFF72D
:1012800089F830E053A0FFF7DBF9AB208DF81300AD
:1012900040F2CC00C2F200000DF1130119E000BFD2
:1012A00042F6CE70C0F60000FFF7CAF98DF80A408A
:1012B00009E000BF43F25100C0F60000FFF7C0F99B
:1012C00000208DF80A0040F2CC00C2F200000DF1BF
:1012D0000A0101224FF0FF3301F0FCF905B0BDE82F
:1012E000F08F00BFE5B142F68B79C0F600091CE033
:1012F000052E15D342F6E1690424C0F6000900BFAB
:101300003819D0F8072004EB08010220002300F070
:1013100019FB68BB201D84B2B442F1D3002504E060
:1013200042F6E1690025C0F600094846FFF788F952
:1013300000F0FEFA284342F66A6142F60B70C0F6EE
:101340000001C0F6000043F20F0408BF084643F254
:101350009F01C0F60004C0F6000108BF0C46FFF76D
:101360006FF92046FFF76CF905B0BDE8F08F00BFBC
:1013700005467FE7426F6F746C6F6164657220573A
:101380007269746520466C617368200D000000006E
:101390004F72646572206F662043524320627974F5
:1013A0006520696E206672616D6520697320256411
:1013B0000D0A00004352432053656E742066726F1D
:1013C0006D20484F535420697320307825580D0AFA
:1013D0000000000053656E6420746F20486F7374C2
:1013E000204E41434B200D0053656E642041434B1A
:1013F00020746F20486F7374200D00002DE9F047B2
:101400008AB040F27C16C2F2000630781121441CEA
:1014100056FA84F050F8049C43F2C000C0F6000075
:101420008DF80710FFF70CF944A0FFF709F94FF604
:10143000FC7050FA84F084B240F2C4080025C2F275
:10144000000802958CB140F2C40A013EC2F2000AC3
:1014500002AF00BF16F8010F394602905046012234
:1014600000F020F9013CF5D10546D8F8000081686C
:1014700041F00101816042F6C750C0F600004946C4
:10148000FEF788FF42F6E850C0F600002946FEF756
:1014900081FF4D4536D142F6F970C0F60000FFF7E6
:1014A000CFF8012040F2CC048DF80800CD20C2F224
:1014B00000048DF827000DF12701204601224FF08E
:1014C000FF3301F007F9054602A9204601224FF03B
:1014D000FF3301F0FFF8054302A800F00DFA06986B
:1014E000C1B28DF8070021A0FEF754FF0DF10701EE
:1014F000204601224FF0FF3301F0ECF82843A8B951
:1015000018E000BF42F6B870C0F60000FFF798F888
:10151000AB208DF8080040F2CC00C2F2000002A916
:1015200001224FF0FF3301F0D5F818B14FF480409D
:1015300001F08EF90AB0BDE8F08700BF426F6F740A
:101540006C6F616465722047657420466C617368D6
:101550002050726F74656374696F6E204C65766598
:101560006C204E756D6265720D0000004F707469DD
:101570006F6E2042797465732050726F7465637466
:10158000696F6E204C6576656C2069732025642038
:101590000D0A0000FEE700007047000072B600BFB1
:1015A000FEE70000F0B581B040F25C17044643F658
:1015B0000C46C2F200070020C4F20206F86100F0F7
:1015C0003FFB3168C9031BD43068C0071CBF012032
:1015D0003060306810F0F20F2ED03068C00633D47F
:1015E0003068800639D4306840063FD43068000641
:1015F00045D4306880074BD4012001B0F0BD00BF56
:10160000F4B10546601C0DD13068C003DCD53068EC
:10161000C00344BF30685FEAC030D5D53068C0032E
:10162000F2D4D1E700F00CFB401BA04208D8306890
:10163000C003F7D4C8E700BF002001B0F0BD00BF71
:10164000032001B0F0BD00BFF86940F01000F86160
:101650001020306030688006C5D5F86940F0080079
:10166000F8612020306030684006BFD5F86940F04E
:101670000400F8614020306030680006B9D5F86990
:1016800040F00200F8618020306030688007B3D5F8
:10169000F86940F02000F86102203060012001B0BC
:1016A000F0BD0000B0B5864602208EF80500DEF8D9
:1016B000000042B302F0030C94084FF0000210D077
:1016C000A1F11003A2EB840453F8105F043A056003
:1016D0005D68944205609D680560DD680560F3D132
:1016E0005242BCF1000F0ED051F82230BCF1010F74
:1016F000036008D001EB82014A68BCF1020F02606E
:101700001CBF89680160006801218EF80510B0BD1A
:10171000002804BF0120704710B50446407918B175
:1017200001206071002010BD00202071204600F0D3
:1017300005F801206071002010BD000043F6300163
:10174000C4F202010068A1F50362904218BF70471D
:1017500081B000200090086840F48050086008685C
:1017600000F480500090009801B070472DE9F043DC
:1017700081B040F25C18C2F2000898F81820012AE3
:1017800004D1022001B0BDE8F08300BF054601206E
:1017900088F818004CF250308946FFF703FF28B153
:1017A000002188F8181001B0BDE8F0834FF0FF3039
:1017B000C9F80000286843F610470128C4F2020760
:1017C0001CD128693968000221F4407139603968F8
:1017D00080B241F0040139603968084340F4803038
:1017E00038604CF25030FFF7DDFE396821F004011B
:1017F000396057F8101C89053BD452E0D5E90260E6
:101800003044864230D2F000841C00BF28694FF477
:101810004072C1B2032939684FEA002021F44071B7
:101820003960396838BF82B241EA020038603868EE
:1018300020F0F8003860386820433860386840F499
:10184000803038604CF25030FFF7ACFE3968002829
:1018500021F0FA01396047D1D5E902010136084487
:10186000864204F10804D1D3002057F8101C8905E2
:1018700017D557F8101C21F4007147F8101C57F8C1
:10188000101C41F4006147F8101C57F8101C21F49B
:10189000006147F8101C57F8101C41F4007147F81C
:1018A000101C57F8101C49057FF57AAF57F8101C2B
:1018B00021F4806147F8101C57F8101C41F4805146
:1018C00047F8101C57F8101C21F4805147F8101CE1
:1018D00057F8101C41F4806147F8101C002188F86B
:1018E000181001B0BDE8F083C9F8006057F8101C6B
:1018F0008905BED4D5E7000043F614410F22C4F297
:10190000020102604A8882604A78CC2A02D1CC2245
:1019100004E000BF4A78AA2A18BF552202610A686B
:1019200002F0E0020276097801F00C014161704793
:1019300043F61041C4F20201086840F00042002062
:101940000A6070472DE9F04381B040F25C14C2F2A6
:1019500000049046227E012A04D1022001B0BDE895
:10196000F08300BF0746012020764CF250301E461F
:101970000D46FFF717FE28B10021217601B0BDE822
:10198000F08300BF43F61049022FC4F2020917D0BA
:10199000012F2BD0002F3FD1D9F8000020F4407048
:1019A000C9F80000D9F80000C9F80000D9F8000013
:1019B00040F00100C9F8000085F8008043E000BF56
:1019C000D9F8000020F44070C9F80000D9F80000F0
:1019D00040F40070C9F80000D9F8000040F00100A0
:1019E000C9F80000C5F800802DE000BFD9F800005C
:1019F00020F44070C9F80000D9F8000040F480706D
:101A0000C9F80000D9F8000040F00100C9F8000052
:101A1000A5F8008017E000BFD9F8000020F440705E
:101A2000C9F80000D9F8000040F44070C9F800007F
:101A3000D9F8000040F00100C9F80000C5F80080A6
:101A4000BFF36F8F6E604CF25030FFF7ABFDD9F8EB
:101A5000001021F00101C9F800100021217601B029
:101A6000BDE8F08343F60440C4F20200C168B1F15E
:101A7000FF3FC4BF0020704740F22311C4F26751FA
:101A8000016048F6AB11CCF6EF510160C068C00FA1
:101A9000704700002DE9F04F82B000F13E4707F19A
:101AA000FF77860546EA972741F60046C4F202060C
:101AB000082243F6004EB04208BF0722C4F2010ECE
:101AC000072F38BF3A46002600274FF00008009243
:101AD00009E000BF08F101080237B8F1100F06F164
:101AE000040600F0A3800D68012202FA08F415EA4A
:101AF0000409EFD0D1F804B003220BF0030CACF1D1
:101B00000105BA40012D6FEA020A0FD88268CD683C
:101B100002EA0A02BD402A4382604268A243CBF334
:101B2000001404FA08F42243426005E0BCF1030FFC
:101B300002D14FF0030C1EE0C2688C6802EA0A0270
:101B4000BC402243BCF1020FC26014D16FF003020B
:101B500002EA58020244D2F820C006F01C040F2307
:101B60000D69A3402CEA0303A5402B431362D1F86F
:101B700004B00BF0030C02680CFA07F302EA0A0245
:101B80001A431BF4403F0260A4D0002243F64403F2
:101B90000192C4F202031A684FF6084C42F48042E4
:101BA0001A601A68CFF6FF7C02F480420192019A13
:101BB00028F00302724452F80C3006F00C050F2492
:101BC000AC40A343009C04FA05F52B4342F80C30CB
:101BD000DEF808204B6842EA090543F60C4CDC02AB
:101BE00058BF22EA0905CEF80850C4F2010CDCF80F
:101BF00000209C0242EA090558BF22EA0905CCF8F8
:101C00000050DEF804209C0342EA090558BF22EA8E
:101C10000905CEF80450DEF80020DB0342EA09058E
:101C200058BF22EA0905CEF8005053E702B0BDE8DC
:101C3000F08F0000002A08BF09048161704700008E
:101C400040F2A820C2F200000068704740F2000095
:101C500040F2A821C2F20000C2F2000100780A6836
:101C6000104408607047000080B543F60040C4F29D
:101C70000200016841F400710160016841F4806173
:101C80000160016841F480710160032000F074F884
:101C90000F2000F005F800F027F8002080BD0000BC
:101CA00070B540F20006C2F2000640F20801327838
:101CB000C2F200014FF47A730968B3FBF2F20446F2
:101CC000B1FBF2F1084600F04FFB0F2C4FF001057D
:101CD00008D838B94FF0FF3021460022002500F027
:101CE0001FF87460284670BD82B0002043F64001A2
:101CF0000190C4F202014A6842F480424A604A6894
:101D000002F480420192019A0090086840F08050ED
:101D10000860086800F080500090009802B070479A
:101D200010B54EF60C5CCEF2000CDCF80030C3F3BC
:101D3000022E8EF00704042C28BF0424BEF10303F6
:101D40004FF0FF3E0EFA04F438BF0023A143994040
:101D50000EFA03F39A43114300F00F0200F16043BF
:101D60000901043A03F564436244002848BF02F1C4
:101D70000C03197010BD00004EF60C51CEF200019C
:101D80000A684FF6FF031A4060F30A2242F08060AF
:101D900040F0FD7008607047002804BF01207047C4
:101DA0002DE9F04143F60808C4F202080446D8F8C9
:101DB000F8030D4600F00700884207D288F8F85370
:101DC000D8F8F80300F00700A84277D1206881070F
:101DD00017D5410705D5D8F8001041F4E051C8F8EF
:101DE0000010010705D5D8F8001041F46041C8F88B
:101DF0000010D8F80010A26821F0F0011143C8F8D3
:101E00000010C00740D1D8F8F80300F00700A8423E
:101E100007D988F8F853D8F8F80300F00700A8426B
:101E20004CD12068410707D5D8F80010E26821F4AA
:101E3000E0511143C8F80010000708D5D8F8000099
:101E4000216920F4604040EAC100C8F8000000F0B9
:101E50007DF8D8F8001042F63D52C1F30311C0F6E8
:101E60000002515C40F2080220FA01F140F2040045
:101E7000C2F200000068C2F200021160FFF710FF1A
:101E80000020BDE8F08100BF6068811E022907D2F2
:101E900058F8081C89015CBF0120BDE8F08111E001
:101EA000012807D158F8081C89035CBF0120BDE850
:101EB000F08107E058F8081C890703D40120BDE829
:101EC000F08100BFD8F8001021F003010843C8F8E2
:101ED0000000FFF7B5FE064641F28837D8F800004B
:101EE000616800F00C00B0EB810F8CD0FFF7A8FE0A
:101EF000801BB842F2D90320BDE8F08140F208000F
:101F000043F60801C2F20000C4F202010068096849
:101F100042F64D52C1F38221C0F60002515CC84026
:101F20007047000040F2080043F60801C2F20000CA
:101F3000C4F202010068096842F64D52C1F3423111
:101F4000C0F60002515CC8407047000010B543F66F
:101F50000404C4F20204606800F00C0142F2004084
:101F60000829C0F2F40007D0042918BF10BD41F2BF
:101F70000020C0F27A0010BD216801F03F02216804
:101F800023684902C3F3881106D4A1FB0001002392
:101F9000FEF788F907E000BF41F20020C0F27A00A6
:101FA0004843B0FBF2F021680222C1F3014102EB89
:101FB0004101B0FBF1F010BD002804BF01207047C3
:101FC0002DE9F04182B00446007843F60006C007D0
:101FD000C4F202060CD0B06800F00C00042840F0F7
:101FE00081803068800303D56068002800F06A8132
:101FF000207880071BD5B06810F00C0F09D0B068AE
:1020000000F00C00082840F087807068400200F162
:1020100083803068800703D5E068012840F0528152
:102020003068216920F0F80040EAC1003060207873
:10203000000713D4207840072AD4A569002D00F0AA
:102040003C81B06800F00C00082840F0A180012D10
:1020500040F01081012002B0BDE8F08160690028E5
:1020600040F20000C4F2472000F07E800121C0F859
:10207000801EFFF7E5FD0546706F8007DAD4FFF795
:10208000DFFD401B0228F7D9032002B0BDE8F08134
:10209000306C5FEAC0080AD400200190306C40F038
:1020A00080503064306C00F080500190019847F20D
:1020B0000007C4F200073868C00547D4386840F408
:1020C00080703860FFF7BCFD054600BF3868C0056A
:1020D0003CD4FFF7B5FD401B0228F7D9032002B01E
:1020E000BDE8F081B06800F00C00082803D17068EA
:1020F00040023FF576AF6068B0F5803F07D0B0F59D
:10210000A02F40F09B80306840F480203060306821
:1021100040F4803030609BE0E06800285CD0002014
:10212000C4F2472001210160FFF78AFD054600BF88
:10213000306880073FF574AFFFF782FD401B02282F
:10214000F6D9032002B0BDE8F08100BFA0680128E5
:1021500005D0052854D1306F40F004003067306F4F
:1021600040F00100306755E00021C0F8801EFFF705
:1021700067FD0546706F80077FF55CAFFFF760FD78
:10218000401B0228F6D9032002B0BDE8F08100BF51
:102190000027C4F2472700203866FFF751FD022DC3
:1021A00005460DD13068800140F19080FFF748FD71
:1021B000401B02284FF00300F4D902B0BDE8F081C3
:1021C0003068800179D5FFF73BFD401B02284FF0B6
:1021D0000300F5D9F1E700BF0020C4F24720002139
:1021E0000160FFF72DFD0546306880077FF51FAFC2
:1021F000FFF726FD401B02284FF00300F4D9DCE76F
:10220000316F002821F001013167316F21F00401A5
:1022100031677DD0FFF714FD054641F2883700BFD6
:10222000306F800700F18680FFF70AFD401BB8423F
:10223000F6D9032002B0BDE8F08100BF3168002864
:1022400021F480313160316821F4802131607BD00C
:10225000FFF7F6FC054600BF306880033FF5C8AEC7
:10226000FFF7EEFC401B6428F6D9032002B0BDE85E
:10227000F08100BF7068E16900F480028A4221D1D8
:10228000216A00F03F028A421CD147F6C071626A9F
:102290000140B1EB821F15D1A16A4FF6FF73C9034C
:1022A000994300F44032A1F580318A420AD1E16AB3
:1022B00000F07060B0EB016F04D1002002B0BDE807
:1022C000F08100BF012002B0BDE8F08104F11C05DF
:1022D0002FCD084340EA8210D9034FF6FF72914395
:1022E000A1F5803140EA056008437060012038663E
:1022F000FFF7A6FC044600BF30688001DDD4FFF77D
:102300009FFC001B02284FF00300F5D955E700BFE2
:10231000FFF796FC054641F2883700BF306F800713
:1023200008D5FFF78DFC401BB8424FF00300F5D9EC
:1023300043E700BFB8F1000F3FF57FAE306C20F0EF
:102340008050306479E600BFFFF77AFC054600BF95
:10235000306880037FF54CAEFFF772FC401B6428A9
:102360004FF00300F4D928E7411E0020B0EB116FB5
:102370001CBF012070474EF21002CEF200025160E5
:102380004EF62351CEF20001F0230B70072190602E
:1023900011607047002804BF0120704710B5044643
:1023A00090F8410028B9002084F84000204600F051
:1023B00021F8242084F841002068C16821F40051EC
:1023C000C160204600F04CFB2068016921F4904177
:1023D0000161416921F02A014161C16841F4005164
:1023E000C16000202021606484F8411084F842100C
:1023F000606310BD80B586B0006844F60002C4F288
:10240000000200219042CDE90411CDE902110191B1
:1024100024D044F20041C4F20001884248D1002097
:1024200043F630010090C4F202010A6942F400321E
:102430000A610A6902F400320092009A009008686A
:1024400040F00100086008680C2100F001000090D5
:1024500000980020C4F202001FE000BF43F63000E5
:102460000091C4F20200026942F480220261026912
:1024700002F480220092009A0091016841F002016A
:10248000016000684FF4406100F002000090009885
:102490000020C4F2020000F5806001910221029147
:1024A0000121CDE903110721059101A9FFF7F2FAF6
:1024B00006B080BD2DE9F04381B0044690F842009B
:1024C000202825D1884600294FF0010000F0FA802D
:1024D0001746002A00F0F680002022211D46606485
:1024E00084F842102063FFF7ABFBA785E785A1685E
:1024F0000746B1F5805F02D12069002854D04646D6
:102500004FF00008E08D002852D005F101090FE0DE
:10251000022001B0BDE8F083406800266FF35F2021
:1025200028F8020BE08D0138E085E08D00283FD0CF
:1025300020680168890617D4B9F1000F22D0002D58
:1025400000F0C480FFF77CFBC01BA84200F2B680FD
:102550002068C168490744BF01685FEA017129D456
:1025600001688906EED500BF002ED5D0A168B1F56F
:10257000805F15D009B9216991B1406800F07F00F2
:102580000FE000BF01688906EED4016889065CBFD0
:1025900001685FEA8161E7D401688906F2D5E3E763
:1025A000406806F8010BBDE70026E08D0028ACD19D
:1025B000002084E0002100910168009140680090B3
:1025C000009800BF206850E8030F216820F4907045
:1025D00041E80302BAB3206850E8030F216820F4F1
:1025E000907041E8030272B3206850E8030F21683D
:1025F00020F4907041E803022AB3206850E8030FEA
:10260000216820F4907041E80302002ADAD11AE030
:10261000206850E8050F216820F0010041E805021C
:10262000DAB1206850E8050F216820F0010041E888
:10263000050292B1206850E8050F216820F00100E2
:1026400041E805024AB1206850E8050F216820F0F2
:10265000010041E80502002ADAD1206B012824D1CB
:10266000206850E8030F216820F0100041E80302C1
:10267000DAB1206850E8030F216820F0100041E82B
:10268000030292B1206850E8030F216820F0100087
:1026900041E803024AB1206850E8030F216820F0A6
:1026A000100041E80302002ADAD1202084F8420019
:1026B000002008212063616484F840000320202169
:1026C00084F8421001B0BDE8F08300BFFFF7B8FA0C
:1026D000F4E700002DE9F041044690F8410020287D
:1026E0001CBF0220BDE8F0810D4600294FF001001B
:1026F00000F0AA801646002A08BFBDE8F08100203D
:1027000060642120984684F84100FFF799FAA68476
:10271000E684A1680646B1F5805F02D120690028F1
:1027200062D02F460025E08C002861D018F101000E
:1027300018D0B8F1000F37D1216808E017F8010B65
:102740004860E08C0138E084E08C002851D00868B3
:10275000000673D5002FF1D135F8020B00276FF377
:102760005F20EDE7216802E00868000609D40868E8
:10277000000606D4086800065CBF08685FEA0060CF
:10278000F2D51FB117F8010B05E000BF35F8020BB9
:1027900000276FF35F204860E08C0138E084E08C14
:1027A0000028E4D125E000BF216800BF08680006CA
:1027B00008D4FFF745FA801B404541D82168C86816
:1027C000F4E700BF17B117F8010B04E035F8020B6E
:1027D00000276FF35F204860E08C0138E084E08CD4
:1027E0000028E3D105E000BF0027E08C00289DD140
:1027F0002168086840061FD4B8F1000F1ED018F1F8
:1028000001000FD10868400616D40868400613D4AA
:102810000868400610D4086840064FF00000F1D563
:102820000FE000BFFFF70CFA801B404508D8206876
:10283000C16800684006F5D5002002E0FFF700FA05
:102840000320202184F84110BDE8F081FEE700005C
:10285000014640F60040C4F202000122FFF7EAB947
:1028600080B540F2C40043F20001C2F20000C4F29D
:1028700002010160FEF74CFF002808BF80BDBDE8E3
:102880008040FEF78BBE000070B586B0002543F691
:10289000300005950095C4F20200016840F600443E
:1028A00041F0800101600168C4F2020401F080017E
:1028B0000091009900950168002241F0010101603A
:1028C00001684FF4704601F00101009100990095F4
:1028D000016841F002010160016801F0020100910C
:1028E00000990095016841F00801016000684FF40B
:1028F000704100F00800009000982046FFF79AF918
:102900000120CDE90205049001A920460196FFF7B8
:10291000C1F806B070BD000080B540F2CC0044F2B2
:102920000041C2F20000C4F2000100234FF00C0C81
:102930004FF4E13280E80E00C0E90333C0E905C37B
:10294000C361FFF727FD002808BF80BDBDE88040B8
:10295000FEF724BE80B540F2141044F60001C2F226
:102960000000C4F2000100234FF00C0C4FF4E132E0
:1029700080E80E00C0E90333C0E905C3C361FFF777
:1029800009FD002808BF80BDBDE88040FEF706BEF7
:10299000FEE70000FEE700007047000070470000FF
:1029A000FFF754B9B0B592B0002443F64000CDE92A
:1029B0000A44CDE908440594CDE90344CDE9014436
:1029C0000094C4F202000168022541F080510160C8
:1029D000006800F080500090009847F200000094DA
:1029E000C4F20000016841F4804101600068A82140
:1029F00000F4804000900098012006904FF4803051
:102A000007904FF480000D9004200E90119006A8BE
:102A10000C95CDE90F15FFF7CFFA18B172B600BFCC
:102A2000FEE700BF0F20CDE901054FF4A050049050
:102A30004FF48050059001A805210394FFF7ACF9ED
:102A400010B172B6FEE700BF12B0B0BD4EF68850AE
:102A5000CEF20000016841F470010160704700008F
:102A600010B504460068D4E902C22369016921F463
:102A7000405111430161626943EA0C01E36911436A
:102A8000C268194349F20C639A431143C16041691A
:102A9000A26921F4407141F20043114340F4806285
:102AA000C4F201039A42416102D1FFF73BFA01E00F
:102AB000FFF724FAE16963681922B1F5004FA0FB22
:102AC000020123D15A00DB0FFDF7ECFB48F21F5146
:102AD000C5F2EB11A0FB01235A094FF69C73C0F617
:102AE000FF7303F1805302FB0300322303EBC000AA
:102AF000A0FB01014FF4F87000EA111000EB021086
:102B0000C1F3421108442168886010BD9A009B0FF0
:102B1000FDF7C8FB48F21F51C5F2EB11A0FB0123E2
:102B20005A094FF69C73C0F6FF7302FB0300322371
:102B300003EB0010A0FB0101F02000EA511000EBB4
:102B40000210C1F3431108442168886010BD0000E1
:102B5000FEE70000B0B540F27C15C2F20005284641
:102B60004FF49671FDF782FD40F2CC00C2F20000F6
:102B7000294601224FF0FF330124FFF79BFC08B1E7
:102B80002046B0BD294611F8012B40F2CC00C2F21C
:102B900000004FF0FF33FFF78DFC00281CBF012021
:102BA000B0BD68781038092810D80024DFE800F09C
:102BB00008141A20262C3206060600BFE0E700BFE4
:102BC000FEF720F900242046B0BD00BF14A0FDF799
:102BD00037FD00242046B0BDFEF766F800242046ED
:102BE000B0BD00BFFDF7AEFF00242046B0BD00BF62
:102BF000FEF704FC00242046B0BD00BFFEF7AAF992
:102C000000242046B0BD00BFFDF71CFE0024204676
:102C1000B0BD00BFFEF74EFA00242046B0BD00BF95
:102C200057726F6E6720696E7075742044656661B7
:102C3000756C7420737769746368206361736520B1
:102C40000D00000040F60061CEF20001D1F88020B6
:102C5000D2071CBF09685FEAC17101D1704700BF8C
:102C60004FF060410A6862B900BF0A684AB900BF04
:102C70000A6832B900BF0A681AB900BF0A68002A98
:102C8000F2D0087070470000FEF7EEFFFFF78AFEF3
:102C9000FFF7FAFDFFF7E4FDFFF73EFEFFF75AFEF0
:102CA00005A0FDF7CDFC00BF4FF48050FFF7D0FD2D
:102CB000FFF750FFF8E700BF0D0A426F6F746C6FAB
:102CC0006164657220496E697469616C697A696EC4
:102CD0006720446F6E65210D0000000030380A281F
:102CE00001D20120704700207047F1EE100A4FF624
:102CF000FF71C0F2C03120EA010040F04070E1EE07
:102D0000100A704730313233343536373839414262
:102D1000434445464030580030313233343536373D
:102D200038396162636465664030780004000008E9
:102D30000000000000000002000100001000000080
:102D4000000000000001020304060708090000005B
:102D50000001020304736563746F72204E756D6227
:102D60006572206973202564202C204E756D626584
:102D700072206F6620736563746F727320697320AD
:102D80002564200D0A00536563746F7273204E6FC3
:102D9000742056657269666965642053656E6420A7
:102DA000746F20686F73743A2045726173652050A8
:102DB000726F6365737320526573756C74206973E9
:102DC000202564200D0A004352432053656E742071
:102DD000627920486F73742069733A202020202084
:102DE00020307825580D0A004352432043616C631C
:102DF000756C61746564206279204D435520697358
:102E00003A20307825580D0A00536563746F72209C
:102E1000537461747573206265666F7265204572C4
:102E2000617365203D20307841412C2041667465F6
:102E300072204572617365203D20307825580D0A57
:102E400000466C6173682057726974696E6720660A
:102E500061696C6564206F6E20574F5244206E7517
:102E60006D6265722025640D0A0048414C20537440
:102E700061747573206166746572206C6F636B6931
:102E80006E6720666C617368206973204F4B200D5C
:102E90000048414C205374617475732061667465F9
:102EA0007220756E6C6F636B696E6720666C617300
:102EB00068206973204F4B200D0048414C2053740B
:102EC00061747573206166746572206572617369DF
:102ED0006E6720666C617368206973204F4B200D0C
:102EE0000048414C205374617475732061667465A9
:102EF000722077726974696E67206F6E20666C61EC
:102F00007368206973204F4B200D0048414C2053BB
:102F10007461747573206166746572206C6F636B85
:102F2000696E6720666C6173682069732045525230
:102F30004F52200D0048414C20537461747573202A
:102F4000616674657220756E6C6F636B696E672065
:102F5000666C617368206973204552524F52200D90
:102F60000048414C20537461747573206166746528
:102F7000722065726173696E6720666C6173682088
:102F80006973204552524F52200D0048414C205346
:102F900074617475732061667465722077726974E8
:102FA000696E67206F6E20666C617368206973209C
:102FB0004552524F52200D004352432056657269CC
:102FC00066696564204661696C6564200D0053651F
:102FD0006E6420746F20486F73742041646472655E
:102FE000737320566572696669636174696F6E20D8
:102FF0004661696C6564200D00435243205665723A
:10300000696669656420506173736564200D0057BB
:10301000726974696E67204661696C6564205265E7
:103020007475726E206661696C757265200D00534F
:10303000656E6420746F20486F7374204F766572DC
:103040007772697465204E65676174697665200DD5
:103050000053656E6420746F20486F7374204F7640
:103060006572777269746520506F736974697665EB
:10307000200D0053656E6420746F20486F737420B8
:103080004164647265737320566572696669636131
:1030900074696F6E2053756363657373200D0057F9
:1030A000726974696E672053756363657373205228
:1030B000657475726E2053756363657373200D00BC
:1030C0003D3D3D3D3D3D3D3D3D3D3D3D3D3D3D3D30
:1030D0003D3D3D3D3D3D3D3D3D3D3D3D3D3D3D3D20
:1030E0003D3D3D3D3D3D3D3D3D3D3D3D3D3D3D3D10
:1030F0003D3D3D3D3D3D3D3D3D3D3D3D3D3D3D3D00
:103100003D3D3D3D3D3D3D3D3D3D3D3D3D3D3D3DEF
:103110003D3D3D3D3D3D3D3D3D3D0D0054686973A8
:1031200020457261736520697320736563746F72E3
:103130002065726173650D00546869732045726182
:1031400073652069732061206D61737320657261FE
:1031500073650D00783100080000002010000000A9
:10316000EC0100088831000810000020A0080000D1
:103170000C02000800000000010000001000000028
:083180000024F400000000002F
:040000050800018965
:00000001FF
